:100000000C94DC090C94040A0C94040A0C94040A61
:100010000C94040A0C94040A0C94040A0C94040A28
:100020000C94040A0C94040A0C9407140C9476148F
:100030000C94040A0C94040A0C94040A0C94040A08
:100040000C94040A0C94040A0C94040A0C94040AF8
:100050000C94040A0C94040A0C94040A0C94BD1326
:100060000C94040A0C94040A0C94040A0C94040AD8
:100070000C94040A0C94040A0C94040A0C94040AC8
:100080000C94A8160C94040A0C94040A0C94040A08
:100090000C94040A0C94040A0C94040A0C94040AA8
:1000A0000C94040A0C94040A0C94040A1010000026
:1000B00040A0A09090600000001824241800003890
:1000C00044444444483000000020504830000000C0
:1000D00040A0A09090600000001824241800003870
:1000E00044444444483000000020504830000000A0
:1000F00040A0A09090600000001824241800003850
:10010000444444444830000000205048300000007F
:1001100040A0A0909060000000182424180000382F
:100120004444444448300000002050483000000857
:100130001414080000000000000000040A04003845
:10014000444444444830000000002050483010101F
:100150000000408870004498E07A44423820500003
:10016000000000000304048FFFF48402000000007C
:10017000000010E000044890E27C4240382050002B
:10018000000001020204048FFFF48201000000005D
:100190000000408870004498E07A444238205000C3
:1001A000000000000304048FFFF48402000000003C
:1001B000000010E000044890E27C424038205000EB
:1001C000000001020204048FFFF48201000000001D
:1001D00010100000000080804040404040408000FF
:1001E000000000384641404040402040202040432D
:1001F0004C30000000008080404040404040800083
:10020000000000384641404040402040202040430C
:100210004C30000000008080404040404040800062
:1002200000000038464140404040204020204043EC
:100230004C30000000008080404040404040800042
:1002400000000038464140404040204020204043CC
:100250004C30101000609804C2891971E181C161AD
:10026000328478000000010204090B8EFFFF840431
:10027000020100000000609804C28919F1E181C107
:10028000613204F8000000010204098BFFFF8908B5
:10029000080403000000609804C28919F1E181C1DB
:1002A000613204F8000000010204098BFFFF890895
:1002B0000804030000609804C2891971E181C161DA
:1002C000328478000000010204090B8EFFFF8404D1
:1002D000020100001010000814080000048A040045
:1002E00000089408000042A54200002051220100AD
:1002F000002152210000000814080000048A0400B4
:1003000000089408000042A542000020512201008C
:10031000002152210000000814080000048A040093
:1003200000089408000042A542000020512201006C
:10033000002152210000000814080000048A040073
:1003400000089408000042A542000020512201004C
:10035000002152210000101080C040C0800267FDC3
:10036000C7021038E838100000197F310000000182
:10037000000000060F03000080C040C0800267FD3F
:10038000C7021038E838100000197F310000000162
:10039000000000060F0300000080C040C08062F72C
:1003A000CD070210B868381000187D330100000135
:1003B000000000060F0300000080C040C08062F70C
:1003C000CD070210B868381000187D330100000115
:1003D000000000060F0300001010C020A020408085
:1003E0000000E01C020915110E00010202010001CB
:1003F0000E00030078060101060000C020A0204086
:10040000800000E01C020915110E0001020201002B
:100410000F000300700C020109060000C020A0209C
:10042000C00000E01C020915110E000000010000D0
:100430000F000300700C0201090600C020A020403C
:10044000800000E01C020915110E000102020100EB
:100450000F000300700C0201090600000000003EBE
:100460005B4F5B3E3E6B4F6B3E1C3E7C3E1C183C24
:100470007E3C181C577D571C1C5E7F5E1C00183C80
:100480001800FFE7C3E7FF0018241800FFE7DBE7C9
:10049000FF30483A060E2629792926407F050507B0
:1004A000407F05253F5A3CE73C5A7F3E1C1C08080C
:1004B0001C1C3E7F14227F22145F5F005F5F0609D1
:1004C0007F017F006689956A606060606094A2FF2A
:1004D000A29408047E040810207E201008082A1C1C
:1004E00008081C2A08081E101010100C1E0C1E0CE8
:1004F00030383E3830060E3E0E0600000000000088
:10050000005F00000007000700147F147F14242AF6
:100510007F2A1223130864623649562050000807C8
:100520000300001C2241000041221C002A1C7F1CE9
:100530002A08083E080800807030000808080808EB
:10054000000060600020100804023E5149453E0052
:10055000427F400072494949462141494D331814B0
:10056000127F1027454545393C4A494931412111FF
:1005700009073649494936464949291E00001400F1
:100580000000403400000008142241141414141414
:10059000004122140802015909063E415D594E7C72
:1005A0001211127C7F494949363E414141227F4127
:1005B00041413E7F494949417F090909013E414185
:1005C00051737F0808087F00417F41002040413F70
:1005D000017F081422417F404040407F021C027F7F
:1005E0007F0408107F3E4141413E7F090909063ED4
:1005F0004151215E7F0919294626494949320301A3
:100600007F01033F4040403F1F2040201F3F4038B4
:10061000403F631408146303047804036159494D8F
:1006200043007F4141410204081020004141417FC5
:10063000040201020440404040400003070800203B
:10064000545478407F28444438384444442838443B
:1006500044287F385454541800087E090218A4A472
:100660009C787F0804047800447D40002040403D91
:10067000007F1028440000417F40007C047804780B
:100680007C080404783844444438FC18242418189E
:10069000242418FC7C0804040848545454240404FA
:1006A0003F44243C4040207C1C2040201C3C4030E7
:1006B000403C44281028444C9090907C4464544C16
:1006C0004400083641000000770000004136080071
:1006D00002010204023C2623263C1EA1A161123A1B
:1006E0004040207A38545455592155557941215468
:1006F000547841215554784020545579400C1E526D
:100700007212395555555939545454593955545410
:10071000580000457C410002457D420001457C4077
:10072000F0292429F0F0282528F07C545545002094
:1007300054547C547C0A097F493249494932324831
:10074000484832324A4848303A4141217A3A424098
:100750002078009DA0A07D39444444393D4040406C
:100760003D3C24FF2424487E4943662B2FFC2F2B3D
:10077000FF0929F620C0887E0903205454794100DE
:1007800000447D413048484A32384040227A007A5D
:100790000A0A727D0D19317D2629292F282629293B
:1007A000292630484D40203808080808080808085D
:1007B000382F10C8ACBA2F102834FA00007B000084
:1007C00008142A142222142A14089500220095AA3B
:1007D000005500AAAA55AA55AA000000FF00101053
:1007E00010FF00141414FF001010FF00FF1010F091
:1007F00010F0141414FC001414F700FF0000FF00A4
:10080000FF1414F404FC141417101F10101F101FF1
:100810001414141F00101010F0000000001F10101E
:1008200010101F10101010F010000000FF1010101A
:10083000101010101010FF10000000FF140000FF37
:1008400000FF00001F10170000FC04F41414171020
:10085000171414F404F40000FF00F7141414141413
:100860001414F700F7141414171410101F101F1489
:100870001414F4141010F010F000001F101F0000EA
:10088000001F14000000FC140000F010F01010FF16
:1008900010FF141414FF141010101F00000000F0BB
:1008A00010FFFFFFFFFFF0F0F0F0F0FFFFFF000090
:1008B000000000FFFF0F0F0F0F0F38444438447C37
:1008C0002A2A3E147E02020606027E027E0263553A
:1008D0004941633844443C04407E201E2006027E89
:1008E000020299A5E7A5991C2A492A1C4C7201729B
:1008F0004C304A4D4D303048784830BC625A463D05
:100900003E494949007E0101017E2A2A2A2A2A44B9
:10091000445F444440514A444040444A51400000EE
:10092000FF0103E080FF000008086B6B08361236F9
:100930002436060F090F06000018180000001010DA
:10094000003040FF0101001F01011E00191D171298
:10095000003C3C3C3C000000000000B00000A170E6
:10096000E150964F26900F1D070C009669004AE44F
:100970004A0048444000806810000F99FB8F9DBDDD
:10098000BBFB77D4D4DF1F1A1AFE7F5D5DFF805A50
:100990000000A0A4AA0010BA3400FF5953F3FF9B33
:1009A0009B9EFFB9B996FF9595D19FF4940FFC29B2
:1009B0005F91FF1838F8FF9294FFFF95D5F7BFB508
:1009C000DDD7F18F81F1F788C8F779C6467909FD3F
:1009D0009B090196F80082818280507162007756EF
:1009E000560076763700A2B77301077206007827A3
:1009F000500073347400775176007F55F7004771CB
:100A00001000324772007364730015A275006167AD
:100A10009400009F6060F4F2F6F2080B00020202FC
:100A2000000009040000010202000005240010017A
:100A3000052401010104240206052406000107051E
:100A4000810310004009040100020A0000000705AC
:100A5000020240000007058302400000040309046D
:100A600012010002EF020140412336800001010221
:100A7000030141726475696E6F204C4C43004172F2
:100A80006475626F7900F0F89C8E8783878E9CF87E
:100A9000F00000FEFF0303030303070EFCF8000051
:100AA000FEFF0303030303070EFCF80000FFFF0033
:100AB000000000000000FFFF0000FEFF838383832F
:100AC00083C7EE7C380000F8FC0E07030303070E13
:100AD000FCF800003F7FE0C08080C0E07F3FFFFF68
:100AE00001010101010101FFFF0000FFFF0C0C0CDF
:100AF0000C1C3E77E3C100007FFFC0C0C0C0C0E057
:100B0000703F1F00001F3F70E0C0C0C0E0703F1F7B
:100B100000007FFFC1C1C1C1C1E3773E1C00001FBF
:100B20003F70E0C0C0C0E0703F1F00000000000147
:100B3000FFFF01000000D5F08D14A1C881CFD9F1CD
:100B4000AF20004D757369633A205468756E646513
:100B50007273747275636B2D0A20696E737069729B
:100B6000656420636F76657200007761746572203A
:100B7000706C616E74732C20737572766976650083
:100B8000436F6E74726F6C20612073746F726D208E
:100B9000636C6F7564006279204365617264726191
:100BA00074680053746F726D206F70657261746F3A
:100BB0007200486F7720746F20706C61793A0A0A6E
:100BC0005072657373204120746F206D616B6520D6
:100BD00069740A207261696E0A095761746572202E
:100BE000666C6F77657220616E640A20677261734C
:100BF0007320746F206561726E20706F696E7473FC
:100C00000A095261696E20636F6E73756D6573209A
:100C1000796F75720A2077617465720A0A5072657D
:100C20007373204220746F20737472696B650A209D
:100C30006C696768746E696E670A09486974207424
:100C40007265657320616E6420726F636B730A2036
:100C5000746F2072656761696E2077617465720ACE
:100C6000094C696768746E696E67207265636861B4
:100C7000726765730A206F7665722074696D650A04
:100C80000A4D616E61676520796F757220776174B6
:100C900065720A206361726566756C6C790A095722
:100CA0006174657220736C6F776C790A2064656378
:100CB000726561736573206F7665722074696D6506
:100CC0000A095261696E696E6720757365732065E4
:100CD000787472610A2077617465720A0A4B6565DF
:100CE0007020796F757220636C6F756420616C6918
:100CF00076650A206173206C6F6E672061732070C7
:100D00006F737369626C650A20616E642073636F30
:100D10007265206173206D616E790A20706F696E53
:100D2000747320617320796F752063616E2100797F
:100D30006F75722073636F72653A200047616D654D
:100D4000206F76657200D8035603D4025202D00198
:100D50004E01AC00080810181CDE7331100010089A
:100D600000182442424444442222224242241800D1
:100D700000182442424222242444424242241800C1
:100D800000182442222222424244444442241800B1
:100D900000182424224242424242424424241800A1
:100DA00010080000183C3C3838381C1C1C3C3C180F
:100DB00000000000183C3C3C1C1818383C3C3C1817
:100DC00000000000183C1C1C1C3C3C3838383C1807
:100DD0000000000018181C3C3C3C3C3C3C381818F7
:100DE00000001008182442828282828141414181A0
:100DF000814224181824428181414142424281812A
:100E00008142241818244241414141418282828218
:100E10008242241818244242418181818181818249
:100E200042422418100800183C7C7C7C7C7E3E3EAC
:100E30003E7E7E3C180000183C7E7E3E3E3C3C3CA4
:100E40007E7E7E3C180000183C3E3E3E3E3E7C7C52
:100E50007C7C7C3C180000183C3C3E7E7E7E7E7E86
:100E60007E7C3C3C180012083C42818181814222F8
:100E70002241418182828181423C38444242212187
:100E800041418181828282818182423C1C22414196
:100E9000414181818141414181828282443838448B
:100EA0008282414141414141418182828282443872
:100EB00010083C7E7E7E7E3C1C1C3E3E7E7C7C7E02
:100EC0007E3C383C3C1E1E3E3E7E7E7C7C7C7E7E94
:100ED0007C3C1C3E3E3E3E7E7E7E3E3E3E7E7C7C9C
:100EE0007C38387C7C3E3E3E3E3E3E3E7E7C7C7C7A
:100EF0007C380A108040800000000000000041A201
:100F0000411C221C7088700000800000000080409E
:100F1000800007080770887041A24100000000802F
:100F20004080008000001C221C41A24107080700ED
:100F300000000000800000000000708870070807B3
:100F40001C221C000A1000800000000000000000AD
:100F5000004100001C0000700000000000000000C4
:100F60000080000000070000700000410000000049
:100F70000000800000000000001C0000410000078D
:100F800000000000000000000000000000700000F1
:100F90000700001C000005080C6F3F1B0905083006
:100FA0007C5F4C3006018700000064004A01870026
:100FB00000006400060187000000640088018700CB
:100FC0000000640006018700000064004A018700F9
:100FD00000006400060187000000640088018700AB
:100FE0000000640006018700000064004A018700D9
:100FF000000064000601870000006400880187008B
:101000000000640006018700000064004A018700B8
:10101000000064000601870000006400880187006A
:101020000000640006018700000064005D01870085
:101030000000640006018700000064009F01870033
:101040000000640006018700000064005D01870065
:101050000000640006018700000064009F01870013
:101060000000640006018700000064005D01870045
:101070000000640006018700000064009F018700F3
:101080000000640006018700000064005D01870025
:101090000000640006018700000064009F018700D3
:1010A0000000640006018700000064004A01870018
:1010B00000006400060187000000640088018700CA
:1010C0000000640006018700000064004A018700F8
:1010D00000006400060187000000640088018700AA
:1010E0000000640006018700000064004A018700D8
:1010F000000064000601870000006400880187008A
:101100000000640006018700000064004A018700B7
:101110000000640006018700000064008801870069
:101120000000640006018700000064005D01870084
:101130000000640006018700000064009F01870032
:101140000000640006018700000064005D01870064
:101150000000640006018700000064009F01870012
:101160000000640006018700000064005D01870044
:101170000000640006018700000064009F018700F2
:101180000000640006018700000064005D01870024
:101190000000640006018700000064009F018700D2
:1011A0000000640006018700000064000B02870055
:1011B000000064000601870000006400D20187007F
:1011C000000064000601870000006400B801870089
:1011D000000064000601870000006400D20187005F
:1011E000000064000601870000006400B801870069
:1011F0000000640006018700000064008801870089
:10120000000064000601870000006400B801870048
:101210000000640006018700000064005D01870093
:101220000000640006018700000064008801870058
:101230000000640006018700000064004A01870086
:101240000000640006018700000064005D01870063
:101250000000640006018700000064004A01870066
:101260000000640006018700000064005D01870043
:101270000000640006018700000064004A01870046
:101280000000640006018700000064005D01870023
:101290000000640006018700000064004A01870026
:1012A0000000640006018700000064000B02870054
:1012B000000064000601870000006400D20187007E
:1012C000000064000601870000006400B801870088
:1012D000000064000601870000006400D20187005E
:1012E000000064000601870000006400B801870068
:1012F0000000640006018700000064008801870088
:10130000000064000601870000006400B801870047
:101310000000640006018700000064005D01870092
:101320000000640006018700000064008801870057
:101330000000640006018700000064004A01870085
:101340000000640006018700000064005D01870062
:101350000000640006018700000064004A01870065
:101360000000640006018700000064005D01870042
:101370000000640006018700000064004A01870045
:101380000000640006018700000064005D01870022
:101390000000640006018700000064004A01870025
:1013A0000000640001806F70657261746F72005399
:1013B000746F726D0000221711241FBECFEFDAE0A8
:1013C000DEBFCDBF11E0A0E0B1E0EEEFF5E402C07A
:1013D00005900D92A037B107D9F727E0A0E7B1E05B
:1013E00001C01D92A732B207E1F719E0CCEDD9E0B8
:1013F00004C02197FE010E941F20CB3DD107C9F7F1
:101400000E946F170C94FD220C94000080917201D1
:101410000895480F592F511D1416150684F580386C
:1014200091056CF597FF02C090E080E041385105CE
:1014300014F040E850E0481BFB01E770FF2721E073
:1014400001C0220FEA95EAF777FF02C0695F7F4F7C
:10145000FB0133E0F595E7953A95E1F7F695FE2F18
:10146000EE27F795E795E80FF91FE15FFC4F415034
:1014700030F08191DF011197822B8C93F8CF089582
:1014800090E0EFE0F3E091119FEF8FEF9193919354
:10149000919391938150D0F70895EFE0F3E0A0E0AD
:1014A000B8E000800EBC8111012C1197A0FDFDCF8A
:1014B0000192B9F70DB40895FC018091AE02882322
:1014C00011F13FB7F89482E08093E9002091F20097
:1014D000822F90E01816190614F481E090E088231A
:1014E00039F0289844E64093AD024091F1004083E2
:1014F000222339F02091F200211103C02BE6209322
:10150000E8003FBF08958FEF9FEF08952FB7F8943D
:1015100083E08093E9009091E800892F807295FF25
:1015200004C09091F20080E4891B2FBF0895809140
:10153000A50281110DC082E08093A10284E0809316
:10154000A2021092A4021092A30281E08093A5024D
:1015500081EA92E00895FC010E94BF0A319728F0C9
:1015600068517C4F8F4F9F4FF9CFAB01FC010E9418
:10157000BF0A641775078E079F07C8F30895ADE982
:10158000B2E02FB7F8947D918D919C9166B52FBFF5
:10159000A89B05C06F3F18F47F5F8F4F9F4F22E0DD
:1015A000660F771F881F991F2A95D1F708954091DC
:1015B0007E0150917F0120917C0130917D01421785
:1015C0005307B4F49091E8009570E1F39091E8002E
:1015D00092FD19C08093F10080917E0190917F016E
:1015E00001968F739927892B19F48EEF8093E80069
:1015F00080917E0190917F01019690937F0180936D
:101600007E0181E0089580E00895DF92EF92FF92DD
:101610000F931F93CF93DF93D82E8A01EB017B01A9
:10162000E40EF51ECE15DF0559F0D7FE12C0FE01FF
:1016300084910E94D70A21968111F4CF0FEF1FEFFA
:10164000C801DF91CF911F910F91FF90EF90DF9034
:1016500008958881EECF0F931F93CF93DF931F924E
:10166000CDB7DEB782E0898342E450E06AE17AE0F8
:1016700080E80E94050B0E94970ADC0112960D91EA
:101680001C910115110589F0D801ED91FC910280A2
:10169000F381E02DBE016F5F7F4FC801099597FD73
:1016A00004C0F80100851185ECCF89810F90DF918E
:1016B000CF911F910F910895615030F02091F1006A
:1016C000FC0120830196F8CF289884E68093AD0230
:1016D0000895AF92BF92CF92DF92EF92FF920F9355
:1016E0001F93CF93DF936C017B018B01040F151FB8
:1016F000EB015E01AE18BF08C017D10759F0699120
:10170000D601ED91FC910190F081E02DC601099583
:10171000892B79F7C501DF91CF911F910F91FF9030
:10172000EF90DF90CF90BF90AF9008958F929F92EF
:10173000AF92BF92CF92DF92EF92FF920F931F93DF
:10174000CF93DF936C017B018A0180910B01882389
:1017500009F45AC08091AE02882309F455C08091E3
:10176000820180FF05C08091E00082608093E000EC
:10177000E801B12C8AEFA82E93E0892E2AE3922E5D
:10178000209711F4BB20C9F10E94860A811108C07C
:10179000AA94AA20C9F181E090E00E94AB0AF0CFA0
:1017A0008C171D0611F00CF08C2F9FB7F8948092C7
:1017B000E9002091E80025FD02C09FBFE1CF282F5E
:1017C00030E0C21BD30BF701815020F041914093D0
:1017D000F100FACFE20EF31EBB2021F09092E80058
:1017E000B12CEBCF8091E80085FDE7CF9092E80027
:1017F000BB24B394209709F3F3CF5D9884E68093DC
:101800008101101611063CF081E090E0F60193830F
:10181000828310E000E0C801DF91CF911F910F910A
:10182000FF90EF90DF90CF90BF90AF909F908F9000
:101830000895CF93DF931F92CDB7DEB76983DC01A4
:10184000ED91FC910280F381E02D41E050E0BE017A
:101850006F5F7F4F09950F90DF91CF91089583E0DF
:101860008093E9008091F200882319F08AE3809345
:10187000E80008950E94860A90E00895CF93DF93D0
:101880001F92CDB7DEB7FC018485958597FD08C012
:101890002FEF3FEF358724870F90DF91CF91089589
:1018A000CE0101960E945C0A019719F4898190E0AB
:1018B000F3CF8FEF9FEFF0CF0F931F93CF93DF9373
:1018C0001F92CDB7DEB78C01FC018485958597FF0B
:1018D0000BC0CE0101960E945C0A019771F48981C8
:1018E00090E0F80195878487F801848595850F90AD
:1018F000DF91CF911F910F9108958FEF9FEFF1CF5F
:10190000FC018485958597FD0BC09FB7F89482E014
:101910008093E9008091F2009FBF90E001960895C6
:101920009FB7F89482E08093E9008091F2009FBF16
:1019300090E008956F927F928F929F92AF92BF92A4
:10194000CF92DF92EF92FF920F931F93CF93DF938B
:101950004C017B01C22F102F98E0A92EB12C642ED0
:10196000669466946694712CCA0187709927892BB6
:1019700079F5D40117962D913C91C7019927B901AA
:101980000E940B20269DF001279DF00D369DF00D45
:1019900011248E0F9F1FD4011596ED91FC91E80F35
:1019A000F91F2081111112C0C095C223C083DF919D
:1019B000CF911F910F91FF90EF90DF90CF90BF904C
:1019C000AF909F908F907F906F900895C22BEECF35
:1019D000D0E04770C42ED12C83E0660C771C8A952A
:1019E000E1F79E0101C0220F4A95EAF7012FA301FA
:1019F000B701C4010E949A0CA301485F5F4FC50163
:101A00008C199D0902C0D595C7958A95E2F7A7CF95
:101A10005F926F927F928F929F92AF92BF92CF927E
:101A2000DF92EF92FF920F931F93CF93DF93EC011E
:101A30006A30F1F48D859E859C878B878B892F85F5
:101A40003889820F932F911D988B8F8781E090E0CA
:101A5000DF91CF911F910F91FF90EF90DF90CF908A
:101A6000BF90AF909F908F907F906F905F90089500
:101A7000AB84BC84693031F429E0A20EB11CBC8671
:101A8000AB86E4CF3DEFA3163FEFB3060CF45BC08B
:101A90008F819885A816B9060CF055C0CF84D888D8
:101AA0008DEFC8168FEFD8060CF44DC089859A8546
:101AB000C816D9060CF047C060320CF46FE780EE10
:101AC000860F9FE9960F9A3118F49FEFC91AD90A29
:101AD0008C3011F08B3119F42FEFC21AD20A86958F
:101AE00034E0839FC00111249C01265A364F7901AE
:101AF000912C812C162F1170F701E80DF91D5490CF
:101B000011112BC0352D3F70532E3501680C791CF7
:101B10008C81882351F001E08989811100E02FE058
:101B2000A601B301CE010E949A0C0989252DA601B8
:101B3000B301CE010E949A0C8FEF881A980A94E0A4
:101B400089169104C9F68A8990E004962B853C8514
:101B5000820F931F9C878B8779CF52948FE05822F6
:101B6000D4CF20918B02E0918902F0918A02CF01BB
:101B7000029690938A0280938902222319F085911C
:101B800094910895808191810895CF92DF92EF9290
:101B9000FF92CF93DF930E94B10D811520E8920749
:101BA00091F4809171008D7F80937100109291006B
:101BB0004698479810927501DF91CF91FF90EF9072
:101BC000DF90CF90089521E020937501813020E8C7
:101BD000920751F4809187029091880290938A0233
:101BE000809389020E94B10D97FD05C02091740178
:101BF000222309F454C020917301211150C021E027
:101C000020937601EC01DF77209709F04BC081E04B
:101C10008093770146983FE9C32E3FE0D32EE12C15
:101C2000F12CCAEFD0E0E0910D03F0910E0309957D
:101C3000811103C081E08093770180917601882330
:101C400029F080917701882309F43FC047980E94CA
:101C5000B10D0097F1F19C01DE010E94E81FDC014B
:101C6000CB0129E0B595A795979587952A95D1F74A
:101C7000109290002AE020939100D0929900C09297
:101C800098008093780190937901A0937A01B093A2
:101C90007B01809171008260809371008DCF1092E2
:101CA0007601B0CF9E0150E040E060E472E48FE046
:101CB00090E00E94941F69017A0181E0C81AD1085E
:101CC000E108F10810927701AECF4699BFCF479A4D
:101CD000BECF8FEF9FEFDC01CBCF4F925F926F9221
:101CE0007F928F929F92AF92BF92CF92DF92EF92AC
:101CF000FF920F931F93CF93DF934C015901FC2D5B
:101D0000C02FD0E0CE01880D991D181619060CF0D1
:101D10006CC020E8821691040CF067C09B012E0D68
:101D2000311D121613060CF060C0603471050CF002
:101D30005CC04115510509F458C0E62FE770FE2E2E
:101D4000DB0177FD179633E0B595A7953A95E1F756
:101D50003A2F77FF04C0FF2011F03FEF3A0F6627BC
:101D600077276819790997FC02C070E060E0803835
:101D700091050CF44BC090E89819961BA32F032EE5
:101D8000000CBB0B1A2F10953F3F0CF010E021E028
:101D90008E2D877009F420E0E694E694E694E20E36
:101DA000AE0DB11D19971CF028E0E22EE31AE11ADE
:101DB000310F20E83203D0011124A80DB91DA60F60
:101DC000B71F019F600D711D1124460F571F0F2D66
:101DD0000F2C000C110BF33009F41CC1C8F4F130C6
:101DE00009F4D0C0F23009F47CC0DF91CF911F918B
:101DF0000F91FF90EF90DF90CF90BF90AF909F90AA
:101E00008F907F906F905F904F900895902FB5CFF7
:101E1000FA3FB1F1232F2E0DFB3F39F7321729F38B
:101E2000BD01615F7C4FD12CC12CC91608F0A4C044
:101E3000FA01EC0DFD1DE491F0E04F01002E02C00F
:101E4000880C991C0A94E2F737FD06C0FB018081DB
:101E5000E82CE0948E218083FF2061F0373054F429
:101E60005B01F0E8AF0EB11CE92CE094F501808134
:101E70008E218083FFEFCF1ADF0A6F5F7F4FD5CFB0
:101E8000232F2E0D321709F4B0CFBD01615F7C4FB7
:101E9000D12CC12CC91608F069C0FA01EC0DFD1D4A
:101EA000E491F0E04F01002E02C0880C991C0A94C6
:101EB000E2F737FD04C0FB01808188298083FF2081
:101EC00051F0373044F45B01F0E8AF0EB11CF5017E
:101ED000808189298083FFEFCF1ADF0A6F5F7F4FF0
:101EE000D9CF6FEF70E00F2C02C0660F771F0A94F6
:101EF000E2F760957095772E232F2E0D321709F497
:101F000074CFFD01E15FFC4F6F01B12CA12CA9162C
:101F100038F5FA01EA0DFB1DE491F0E02F01002EE7
:101F200002C0440C551C0A94E2F737FD05C0F601C7
:101F30008081862384298083FF2059F037304CF438
:101F40004601F0E88F0E911CF401808187218529DC
:101F50008083FFEFAF1ABF0A8FEFC81AD80AD7CF16
:101F60003F5F4C0F5D1FA058BF4FC8CF3F5F4C0F66
:101F70005D1FA058BF4F86CF3F5F4C0F5D1FA0581D
:101F8000BF4F4CCF6A0D7B1D232F2E0D321709F446
:101F90002CCFFD01E15FFC4F6F01B12CA12CA916E4
:101FA00088F5FB01EA0DFB1D8490912C002E02C0E8
:101FB000880C991C0A94E2F780949094FA01EA0D37
:101FC000FB1D6490712C002E02C0660C771C0A94D5
:101FD000E2F737FD05C0F6018081882186298083DC
:101FE000FF2049F037303CF4F601E058FF4F808184
:101FF000892187298083FFEFAF1ABF0A8FEFC81AA4
:10200000D80ACDCF3F5F4C0F5D1F6C0F7D1FA058CE
:10201000BF4FBCCFC92ED12CFA01E60FF71FA15F2D
:10202000BC4F00E810E00C191D09CC19DD09BE01F8
:10203000660F771F41E050E06A010F2C01C0CC0C05
:102040000A94EAF7592F2E2D792ECF93DF93ED01C5
:10205000EF96EF9622968590A590FF2059F08C9CE4
:102060004001AC9C500137302CF4E880B094EB2058
:10207000E928E99233233AF0EC90A094EA20E8288A
:10208000ED920C94441011965A9529F72A9551F027
:10209000572D33951124E60FF11DA00FB11DC00F70
:1020A000D11DD9CFDF91CF9111249FCECF92EF9246
:1020B0000F934115510541F1FA0104913196E490D5
:1020C0004E5F5F4F2223D1F0A1E0B0E03E2D37708C
:1020D00011F4B0E0A0E0EE2DE695E695E695EA0F66
:1020E000FB2FF11D0E9FD0010F9FB00D11242A9FD1
:1020F000F0012B9FF00D11244E0F5F1F2AEFC22E0F
:1021000030E020E00E946D0E0F91EF90CF90089587
:10211000CF92EF920F93CF93DF93DC01FA010491FA
:102120003196E4904E5F5F4F2223D1F0C1E0D0E0C2
:102130009E2D977011F4D0E0C0E0EE2DE695E69567
:10214000E695EC0FFD2FF11D0E9FE0010F9FD00DC6
:1021500011242C9FC0012D9F900D1124480F591F51
:102160008BEFC82E30E020E0CD010E946D0EDF9194
:10217000CF910F91EF90CF90089590E00C94AB0A1F
:102180008FB18095807F669B88601C9B84600895DA
:102190005C988EBD00000DB407FEFDCF5C9A0895DB
:1021A000109272013E983F9808953E9A3F9A81E0BE
:1021B00080937201089590919202982329F490914E
:1021C0009302982381E009F480E00895CF93C82F0B
:1021D0000E94C010982F9C2381E09C1380E0CF9137
:1021E000089580E00C944D0A80389105B8F460346D
:1021F0007105A0F490E121E061FD24E060FD220F73
:1022000062FD2295687F969FD0011124A80FA15FDF
:10221000BC4F0C90022A40FF02260C9208952F9288
:102220003F924F925F926F927F928F929F92AF9266
:10223000BF92CF92DF92EF92FF920F931F93CF93B3
:10224000DF9300D000D000D01F92CDB7DEB76D3045
:10225000D9F030900D014090900250909102832D62
:1022600090E09F838E836A3051F510928F02109216
:102270008E0223E0880F991F2A95E1F7480E591E18
:10228000509291024092900281E090E027960FB622
:10229000F894DEBF0FBECDBFDF91CF911F910F919C
:1022A000FF90EF90DF90CF90BF90AF909F908F9076
:1022B0007F906F905F904F903F902F900895A090E7
:1022C0008E02B0908F0295E0699FB0011124FB014E
:1022D000E65AFB4F3F016501212CF5E02F1629F14D
:1022E000C3010196F301F491F9833C01420128E016
:1022F0002A83898181708D8310E000E00315D0F47A
:10230000F801EC0DFD1DFC83EB83F12CE12CE314B3
:1023100070F4B4016E0D7F1D4D818B819C810E94F4
:10232000F410FFEFEF1AFF0AF2CF1982DFCF0F5F31
:102330001F4FE4CF2981269529838A8181508A8382
:10234000EE81FF818E0E9F1E8111D3CF2394CE0E7E
:10235000DF1EF6E02F12C1CFC501329C800D911D0A
:10236000112490938F0280938E028ECF0F931F9330
:10237000CF93DF938C01D0E0C0E0F801EC0FFD1F9C
:102380006491662341F083E297E00E940F11892B4C
:1023900011F02196F2CFCE01DF91CF911F910F91D5
:1023A0000895DF92EF92FF920F931F93CF93DF93E5
:1023B0007C01D22E8B01040F111DEB0177FF02C0AF
:1023C000D0E0C0E0C8010134110514F080E490E0D1
:1023D000C817D9073CF44D2DBE01C7010E94F41067
:1023E0002196F0CFDF91CF911F910F91FF90EF9049
:1023F000DF900895EF92FF920F931F93CF93DF9397
:102400007C018B01C42FD22F6034710510F40E941F
:10241000090AB8016D0F711D6150710960347105B1
:1024200020F44C2FC7010E94090A21E04D2FB8016A
:10243000C7010E94D111C7018C0F911D21E04D2FC2
:10244000B8010197DF91CF911F910F91FF90EF900D
:102450000C94D1112F923F924F925F926F927F9284
:102460008F929F92AF92BF92CF92DF92EF92FF92A4
:102470000F931F93CF93DF9300D01F92CDB7DEB79A
:102480009B838A837B016A0109838901061B170BE1
:1024900017FF03C011950195110946018A819B819F
:1024A000881A990A97FE03C0919481949108801626
:1024B00091065CF49C2D8D2D6901292F382F9A816E
:1024C0008B81FB82EA82E92EF82E8A819B81C816D5
:1024D000D9065CF49E2D8F2D7901292F382F9A81F2
:1024E0008B81DB82CA82C92ED82E16018A819B81FC
:1024F000281A390A29014E185F0857FE03C0519463
:1025000041945108310137FE03C09FEF691A790ADF
:10251000759467948FEFE216F3060CF481E0A82E11
:10252000880FBB088A819B81C816D906CCF04981E7
:10253000BC01C701801691061CF0B7018A819B81FE
:102540000E94F4106418750877FE04C0EA0CFB1CA6
:10255000620C731C8A819B8101969B838A83E2CFE4
:102560000F900F900F90DF91CF911F910F91FF90DF
:10257000EF90DF90CF90BF90AF909F908F907F9023
:102580006F905F904F903F902F9008954F925F9281
:102590006F927F928F929F92AF92BF92CF92EF9263
:1025A000FF920F931F93CF93DF93EC015B014A01DE
:1025B000390128010C2D0E942A129701A201B301B2
:1025C000C4010E942A129501AE01B701C2010E9406
:1025D0002A12DF91CF911F910F91FF90EF90CF9032
:1025E000BF90AF909F908F907F906F905F904F9033
:1025F000089580917001882321F01092700180E08D
:1026000008952091990290917101322F391B932FD7
:1026100030910C01931740F49F5F931790F491E071
:1026200093BF889513BE089581E080937001209335
:102630007101E4E8F1E080819181019680839183CA
:1026400081E00895089590E080E00895FB010190F5
:102650000020E9F73197AF01461B570BDC01ED91E4
:10266000FC910280F381E02D0994CF93DF930E94C7
:10267000B611EC0163E471E083E297E00E94261357
:102680008C0F9D1FDF91CF910895BF92CF92DF9263
:10269000EF92FF920F931F93CF93DF930E94400A14
:1026A000109291021092900210928F0210928E025C
:1026B0006AE270E080E090E00E94711FCDE8D1E016
:1026C00084E1C82ED12CE12CF12C94E1B92E10E03C
:1026D00000E00E94221FA70196010E94941F8BEF29
:1026E000860FFE01E00FF11F823008F444C06083C2
:1026F0000F5F1F4F0F31110561F76E9682E0CB39E6
:10270000D80729F71092860110927E0210927D025E
:1027100069E370E380E090E00E94711F10928701EE
:102720001092960210928D0210928C0110928B01E1
:1027300088E99AE3909389018093880120E43CE939
:1027400030938602209385021092800210927F02BD
:10275000909382028093810282E38093830210929D
:102760008402DF91CF911F910F91FF90EF90DF9046
:10277000CF90BF900895B082BBCF0F920FB68F93CA
:102780009F93EF93FF93809198028D5F8D3708F0B0
:102790008D5780939802E9E9F2E080818E4F808323
:1027A00091819F4F918382818F4F828383818F4F4D
:1027B0008383EDE9F2E080818F5F808381818F4F99
:1027C000818382818F4F828383818F4F83838FB1F7
:1027D0008F6066991C9B88278F3681F480919702C1
:1027E000981B963068F0E0E0F8E087E7808381830B
:1027F00088E180936000F0936000FFCF9093970290
:10280000FF91EF919F918F910FBE0F9018951F929E
:102810000F920FB60F9211248F939F938091E10036
:102820009091E100937F9093E10083FF0FC010929D
:10283000E90091E09093EB001092EC0092E390930A
:10284000ED001092AE0298E09093F00082FF22C05B
:1028500093E09093E9009091F200992319F09AE3A4
:102860009093E80090918101992341F0909181012A
:10287000915090938101911101C05D9A9091AD02A8
:10288000992341F09091AD0291509093AD02911136
:1028900001C0289A84FF18C08091E2008E7E81607A
:1028A0008093E2008091E1008F7E8093E10080912F
:1028B00082018E7E8061809382019F918F910F9023
:1028C0000FBE0F901F90189580FFF7CF8091E20008
:1028D0008E7E80618093E2008091E1008E7E809305
:1028E000E100809182018E7E8160E5CF1F920F9280
:1028F0000FB60F921124CF92DF92EF92FF920F93B7
:102900001F932F933F934F935F936F937F938F9377
:102910009F93AF93BF93EF93FF93CF93DF93CDB785
:10292000DEB76C97DEBFCDBF1092E9008091E80062
:1029300083FF25C068E0CE0145960E945C0B82EFC4
:102940008093E8008D8987FF39C09091E80090FF5F
:10295000FCCF982F907609F034C19E894F89588D0D
:102960002F89F88C911131C0803861F580918301F5
:102970008093F1001092F1008EEF8093E8006C9646
:102980000FB6F894DEBF0FBECDBFDF91CF91FF91A0
:10299000EF91BF91AF919F918F917F916F915F91D7
:1029A0004F913F912F911F910F91FF90EF90DF90EA
:1029B000CF900F900FBE0F901F9018959EEF9093A1
:1029C000E800C7CF1092F100D5CF913059F48111B2
:1029D000D3CF4130510581F6809183018D7F809363
:1029E0008301CACF933049F48111C6CF41305105DC
:1029F00019F6809183018260F2CF953041F4809185
:102A0000E80080FFFCCF20682093E300B5CF96302C
:102A100009F0A9C00B8D1C8D22E01092E9001092E4
:102A20007F0110927E01F2122EC010927D01109251
:102A30007C010E942B0B1F8299E09983FA8291E01E
:102A40009E8390EA98879AEF998720917E01309132
:102A50007F01275F3F4F3C832B838D831092E900DA
:102A600010927F0110927E0110937D0100937C01F2
:102A700049E050E0BE016F5F7F4F80E00E94050B90
:102A80000E942B0B79CF10937D0100937C010E9453
:102A9000970ADC0112960D911C910115110509F49C
:102AA00051C1D801ED91FC910480F581E02DBE016A
:102AB0006B5E7F4FC8010995009709F03EC1F80190
:102AC00000851185EACFF3E0FF120EC08F898823BD
:102AD00009F440C0823061F440E867E08EE79AE094
:102AE0000E94EF16811148CF81E28093EB0047CF1F
:102AF000813029F440E86BE082E79AE0F1CF83303F
:102B000099F70E94970ADC011296ED90FC908E01D5
:102B10000F5F1F4F6801E114F10479F0D701ED91C7
:102B2000FC910680F781E02DB801C7010995080FD7
:102B3000111DF701E084F184EECFD8011C92F6015B
:102B400001900020E9F73197BF016C197D0940E041
:102B5000C601C6CF6CE57AE0FB01449150E080E805
:102B60000E94050B09CF973009F4BECF983021F4AD
:102B700081E08093F10000CF993009F0FDCE8370A1
:102B800009F0B2CFE3E1F1E081E031E096E3219199
:102B9000222371F08093E9003093EB00DF0111975D
:102BA0002C912093EC009093ED008F5F873079F7A4
:102BB0008EE78093EA001092EA008F898093AE023C
:102BC000DBCE8B8D9C8D1092E90010927F011092CC
:102BD0007E0190937D0180937C01898D811192C04B
:102BE0008E899D89913A49F4813209F07DCF47E081
:102BF00050E064E071E080E0B3CF913209F074CF2F
:102C0000833269F48F89988DB0E0A0E08093000151
:102C100090930101A0930201B0930301ADCE8032E5
:102C200069F48091E80082FFFCCF67E084E091E0E6
:102C30000E945C0B8BEF8093E8009ECE823209F0FD
:102C40009BCE8F8980930B01EEEFFFE785919491E6
:102C50008B3F9C4D51F1E0E0F8E0809104019091B0
:102C60000501A0910601B0910701803B9440A105A8
:102C7000B105F1F480910B0180FD1AC0EE3F8AE0AE
:102C8000F80789F587E797E7918380838091600053
:102C90008093800188E19BE00FB6F894A89580931B
:102CA00060000FBE9093600067CEEEEFFAE0D5CFE4
:102CB000808191818737974709F05ECEA8958091F2
:102CC0006000886180936000809180018093600043
:102CD000EE3F2AE0F20789F08091FE0A9091FF0A08
:102CE0009183808349CE808191818737980751F203
:102CF0009093FF0A8093FE0AC5CF1092FF0A1092AC
:102D0000FE0A3ACE0E94970ADC0112960D911C91A0
:102D10000115110509F4E8CED801ED91FC9101905F
:102D2000F081E02DBE016B5E7F4FC80109958111D6
:102D300023CEF80100851185EBCF181619060CF487
:102D40001BCED2CEF1E0FF12BECE60E67AE004CF19
:102D50001F920F920FB60F9211242F933F934F9310
:102D60005F936F937F938F939F93AF93BF93EF93F3
:102D7000FF938091780190917901A0917A01B091AF
:102D80007B010097A105B10539F12091770121114F
:102D900005C0369A209176012111379A0197A10931
:102DA000B109B7FD08C08093780190937901A09391
:102DB0007A01B0937B01FF91EF91BF91AF919F9109
:102DC0008F917F916F915F914F913F912F910F90D4
:102DD0000FBE0F901F9018950E94C50DECCFEF927B
:102DE000FF920F931F93CF93DF93F82E192FE62EA8
:102DF000042F81E0860F880F0E94D70A83E00E948B
:102E0000D70ACF2DD12FEC0EFD2EF11CCE15DF05EC
:102E1000B9F007FF13C0FE0184910E94D70A182F52
:102E200080E00E94D70A812321968111EFCFDF91A4
:102E3000CF911F910F91FF90EF9008958881EDCF72
:102E400081E0F5CFEFEAF2E01382128288EE93E0A0
:102E5000A0E0B0E084839583A683B7838DE191E001
:102E6000918380838FEF9FEF95878487E3E2F7E07C
:102E7000138212828BE391E09183808386E09AE053
:102E800090930E0380930D0380E090E890930C03E1
:102E900080930B0346983E9A47983F9AEFE0F7E0FD
:102EA000138212828FE291E0918380838FE093E01E
:102EB0009683858380E890E09087878380E490E024
:102EC0009287818785E0838B81E0828B16861586C9
:102ED000108A178614861386818B14820895CDB7C5
:102EE000DEB7E597DEBFCDBF789483E084BD83E095
:102EF00085BD81E080936E00E1E8F0E083E08083AF
:102F0000E0E881E08083E1E983E08083E0E981E03B
:102F10008083E1EC87E08083E3EC81E08083E0EC78
:102F200082E08083E2EC81E08083EAE787E08083CF
:102F3000806880831092AE02109283011092820109
:102F40008091D70081608093D70080EA8093D80079
:102F500089B5806189BD89B5826089BD09B400FEEB
:102F6000FDCF81E090E00E94AB0A8091D8008F7C79
:102F700080618093D8008091E000807F8093E000A2
:102F80008091E1008E7E8093E1008DE08093E200ED
:102F9000559A209A81EC80937C0081EF85B987EE69
:102FA00084B982E38BB982EF8AB9769A6E9880EF02
:102FB00081BB10BA80E58CBD81E08DBD85E00E94AB
:102FC000BD105F9A85E00E94BD105C98E6E3FBE0CF
:102FD00085918EBD00000DB407FEFDCFE334C1F72F
:102FE0005C9A81E88093640081E0809365000E9490
:102FF000F11080E80E94E610882341F185EA0E94E2
:10300000C8102E982F982D9880916400806280932C
:10301000640081E083BF889513BEFCCF2D9A88ECB5
:103020000E94BD102F986FEF82E090E00E94821FF7
:1030300084EF91E00E94AB0A2F9A84E80E94E61088
:103040008111FBCF0EC088EC0E94BD1084E00E946D
:10305000E610882301F12D9884E80E94E610811182
:10306000DDCF84E10E94E610882369F32D9A88EC75
:103070000E94BD102E9860E082E090E00E94821FC6
:1030800084EF91E00E94AB0A2E9A84E10E94E61040
:103090008111FBCFD8CF2D9A82E090E00E947A1F59
:1030A000882309F474C00E94D51081E090E00E944A
:1030B0007A1F282F2470F22E81FF0CC021112E9828
:1030C00001EF1FEF80E40E94E610882309F462C03C
:1030D0002E9A2F9A82E30E94BD100E94C010811187
:1030E000F9CF80E180930C010E94D0100E9445131B
:1030F0000E94F912882309F442C0809193028093C0
:1031000092020E94C010809393020E94400A109283
:1031100091021092900210928F0210928E02809172
:103120009602823009F4ABC508F0D1C0882309F4B7
:10313000FEC0813009F4B2C1809184019091850173
:1031400087709927892B39F480919502833008F490
:1031500029C6109295020E94F1100E94F9128091E6
:103160008401909185016EE170E00E94F71F892B28
:1031700031F48091940291E089278093940280E059
:1031800090E0892B09F4B4CF0E940000B1CF0E94D7
:10319000D0108BCFFF2029F00430110511F42E9AA6
:1031A0002F9881E00E944D0A302F3770E32EA8013E
:1031B000E3E055954795EA95E1F79A013695322F68
:1031C000222737952795215F3C4F70E060E04E3F06
:1031D0008FEF580709F04EC04F5F5F4F20583F4FA9
:1031E000685A7F4F603B710591F70E94F1108FE0A4
:1031F0000E94BD100F5F1F4F0931110509F062CF0A
:10320000FF2011F02F9A2D9880E991E00E94AB0ADF
:103210002D9A81E090E00E947A1F80FF5BCF8AE0C8
:1032200090E00E947A1F9FEF980F9E3F08F052CFC8
:1032300022E330E030938F0220938E0228E330E0C7
:1032400030939102209390020AE010E0682F83E20D
:1032500097E00E940F110F5F1F4FC8010E947A1F55
:103260000031110599F70E94F11088EE93E00E9459
:10327000AB0A30CF90E080E0DB01AA57B54F69017F
:10328000E0E8CE0ED11CFD01E80FF91FE491F0E05B
:103290003F010E2C02C0660C771C0A94E2F74F3FE8
:1032A000540739F05901A80EB91EF50194889628E3
:1032B000948AEE2039F05601A80EB91EF5019488C3
:1032C0009728948A019688359105E9F685CF833051
:1032D00009F419C5843009F02FCF83EA9BE00E94DE
:1032E000351386E99BE00E94351365E471E083E2C3
:1032F00097E00E94261363E471E083E297E00E9466
:10330000261380E89BE00E9435138AE69BE00E942A
:10331000351389E69BE00E94351383E49BE00E940D
:10332000351384E00E94DB108111EAC405CF24E04C
:1033300030E030938F0220938E0281E090E09093F2
:1033400091028093900282E080930D018FEA93E1D5
:103350000E94B61186E190E090938F0280938E02D6
:10336000A2E1B0E0B0939102A093900286EA93E1CB
:103370000E94B611EEE1F0E0F0938F02E0938E022E
:103380002DE230E0309391022093900281E080930F
:103390000D0180918D02813009F469C0823009F4F9
:1033A0006DC066E471E0882309F463C080919402E3
:1033B0008823F1F0CC24C39468E2E62EF12C0FE3CD
:1033C00010E027E230E04EE350E068E270E08DE389
:1033D00090E00E94C61277E3E72EF12C28E330E05C
:1033E0004EE350E067E370E08DE390E00E94C61288
:1033F00080E80E94DB10882339F080918D02815093
:1034000087FD3FC080938D0280E10E94DB108823FE
:1034100039F080918D028F5F8330ACF580938D02FF
:1034200088E00E94DB10882309F486CE80918D020B
:10343000813061F1823081F181117ECE11E01093F3
:1034400096020E94D510809171008D7F809371004B
:1034500010938B0284EA9FE090938A028093890202
:1034600090938802809387020E94C50D65CE6FE419
:1034700071E083E297E00E94261398CF6CE571E03B
:10348000F8CF82E0BFCF10928D02CACF10928C028B
:1034900083E08093960250CE84E0FBCF809186013A
:1034A000873008F07EC38F5F80938601912C812C3A
:1034B000D12CC12C60907D0270907E02830154E07B
:1034C000169507955A95E1F7C8018C199D0997FD46
:1034D0004E96B0EF6B2A77247A94680C791CFC0125
:1034E000E357FE4F7F014AEFA42EBB24BA94D701C5
:1034F000EC91E73068F4F0E0EE0FFF1FEA5BF24F6B
:103500004591549120919502B301C5010E94561036
:10351000BEE1EB0EF11CE0E1AE0EB11CFAE7AF1616
:10352000B10429F72FEFC21AD20A30E1830E911CA1
:1035300085E0C816D10409F0BDCFC8010A96F8018C
:1035400074978F31910508F4FC01E357FE4F90E02A
:1035500080E023E034E04081453009F4208340815D
:10356000463009F4308301967E968830910599F7AC
:1035700081E080930D0107E610E020E045E070E077
:1035800060E0C8010E94D1110F5F1F4F0038110584
:10359000A1F780918B0190918C010A9708F416C3D2
:1035A0008AE000E810E0081B110920E045E066E031
:1035B00070E0C8010E94D1110F5F1F4F0038110544
:1035C000A1F708E610E010931D0700931C07109365
:1035D0001B0700931A0710921F0710921E0765E63B
:1035E00071E08FE097E00E94261310931D0700936F
:1035F0001C0710931B0700931A0785E090E0909337
:103600001F0780931E0780918C018F9380918B01FF
:103610008F938BE691E09F938F93A1E0B0E0AC0F86
:10362000BD1FBF93AF930E942520BE016F5F7F4FE8
:103630008FEA92E00E942613BE016F5F7F4F8FE0FA
:1036400097E00E94261380E80E94E610E82EF12CF5
:1036500080E10E94E6100F900F900F900F900F9056
:103660000F908111B5C2F194E194F10880E20E94BB
:10367000E610C82ED12C80E40E94E6100027112706
:103680000C191D09882321F001E010E00C191D0917
:1036900088E00E94DB10882319F081E08093840287
:1036A0008091920283FF05C08091930283FF109264
:1036B000840284E00E94DB10882309F490C2809188
:1036C0008801909189018032FEE49F0708F487C247
:1036D00080529E44909389018093880187EA0E94DA
:1036E000C81081E080938A01E114F10421F087E0A1
:1036F0000115110509F48AE090918302899FC001A8
:103700001124E89EA001E99E500DF89E500D112451
:10371000089F9001099F300D189F300D1124A0E0E3
:103720008091810290918202BA01680F791F8427EB
:103730009527FB01E427F527809590958E239F23FD
:1037400097FDA1E0A11151C27093820260938102A2
:10375000E0E080917F0290918002A901480F591FFB
:1037600082279327BA016227732780959095862335
:10377000972397FDE1E0E11144C25093800240930A
:103780007F02B09095022091810230918202032E37
:10379000000C440B550B30584F4F5F4FA8E3B0E07F
:1037A0000E94B31F2FEF3FEF40E050E00E94941FB4
:1037B00069013CA32BA320917F0230918002032E4C
:1037C000000C440B550B30584F4F5F4FA4E6B0E050
:1037D0000E94B31F2FEF3FEF40E050E00E94941F84
:1037E0002901190180918402882309F12B2D44E4D9
:1037F0005FE0B601820101501109C8010E94561014
:103800002B2D42EF5EE0B601C8010E9488102B2DDF
:1038100044E45FE0B601075F1F4FC8010E945610E5
:103820002B2D42EF5EE0B601C8010E948810009186
:10383000850210918602093C2FEA120708F4EDC1B7
:103840002B2D40EB5EE0B601C2010E9456102B2DDD
:1038500046E65EE0B601C20101970E9488108091A1
:103860008A018BA7882319F086E080938701B090A6
:103870008701BB2069F020E044E55DE0B6016A5FA6
:103880007F4FC20104960E945610BA94B0928701ED
:1038900020E0C80188970817190708F421E02111D2
:1038A000D7C1909386028093850220E080918801A1
:1038B0009091890188539F4F883C910508F421E03D
:1038C0002111CBC1909389018093880188E00E94E7
:1038D000E610882389F020E040918502509186020D
:1038E000CA01C2974817590708F421E02111BCC149
:1038F000909386028093850204E710E020E04FE376
:103900006AE070E0C8010E94D1110F5F1F4F0E37AF
:103910001105A1F72091850230918602ADE2B0E059
:103920000E94E81F2FEF3FEF40E050E00E94941FFD
:1039300049012AA32EE245E062E170E085E790E0CC
:103940000E94FA118FE390E05C01A818B90805E71E
:1039500010E021E04AA1B501C8010E94D1110F5F1A
:103960001F4F0A371105A9F720E04DE95FE06AE033
:1039700070E085E790E00E94561020918801309118
:103980008901ADE2B0E00E94E81F2FEF3FEF40E079
:1039900050E00E94941F49012AA32EE245E062E113
:1039A00070E08BE790E00E94FA118FE390E05C01F9
:1039B000A818B9080BE710E021E04AA1B501C80139
:1039C0000E94D1110F5F1F4F00381105A9F720E0A9
:1039D00046E95FE06AE070E08BE790E00E945610F5
:1039E0001AA619A6912C812CEBA1FCA13C96FDA74F
:1039F000ECA79101205F3F4F3FA72EA7C1010C9676
:103A000099AB88ABD1011496BBABAAABEBA1FCA1DF
:103A10003496FDABECAB2BA13CA1205F3F4F3CA308
:103A20002BA380917D0290917E025C0124E0B694EC
:103A3000A7942A95E1F7A818B908B7FE03C03EE19C
:103A4000A30EB11C8F709927A9A5BAA5A80FB91FFD
:103A5000BEA3ADA35097B8A7AFA3F501E357FE4FA0
:103A60005F010AEF1FEFD501BC91BAA3B63008F091
:103A70006BC0EEA5FFA50E171F0754F5C8014096B1
:103A8000281639062CF52FA138A58BA19CA1281743
:103A90003907F4F4ADA1BEA1ECA5FDA5EA17FB071B
:103AA000BCF4FAA1F330A0F480918402882381F061
:103AB00080918B0190918C01019690938C01809361
:103AC0008B0120E140E16FA178A5C8010E94FA11A5
:103AD00028A939A902171307BCF5C8014096AAA95D
:103AE000BBA9A817B90784F5EFA1F8A52CA53DA59A
:103AF000E217F3074CF58DA19EA1ACA9BDA9A817AB
:103B0000B90714F5BBA5BB23F9F0EAA1E33009F02E
:103B1000B0C0E5E0D501EC9320E080918502909162
:103B200086028856954C8839FAE39F0708F421E00D
:103B30009093860280938502222331F02FEF3FEF8E
:103B400030938602209385022EE1A20EB11C005F05
:103B50001F4F0A37110509F086CF3FEF831A930AEA
:103B600089A59AA540969AA789A795E089169104F8
:103B700009F057CF80918402882341F0B601645F39
:103B80007F4F24E040E1C2010E94FA11809185023A
:103B900090918602892B09F0CFCA0E94D01082E052
:103BA00078CC80917D0290917E0210928601803EB9
:103BB000A1E09A0730F4019690937E0280937D02F3
:103BC00075CC10927E0210927D0270CC85E0E9CC1B
:103BD00081E090E0FC01EE19FF097F0147CD86EA04
:103BE0000E94C81010928A017FCD8FEF9FE71416B4
:103BF000150614F080E090E8909382028093810291
:103C0000A7CD8FEF9FE71216130614F080E090E81F
:103C10009093800280937F02B4CD2B2D093A31E638
:103C2000130760F044E25EE0B601C2010E94561044
:103C30002B2D42EE5DE0B601C2010FCE40EA5DE001
:103C4000B601C2010E9456102B2D4EE55DE0F3CF68
:103C5000109286021092850228CEAFEFBFEFB0938C
:103C60008901A093880132CE1092860210928502BB
:103C700043CE3AA1343009F067CFE6E04BCF8093D2
:103C80000D018CE39DE00E94B61181E080930D014F
:103C900010928F0210928E02A0E3B0E0B0939102D6
:103CA000A09390028FE29DE00E94B61120918B01BB
:103CB00030918C0150E040E019A28E010F5D1F4F42
:103CC000CA01B9012AE030E040E050E00E94C61F7E
:103CD000605DF80162938F012115310541055105A1
:103CE00079F7309729F0BF0183E297E00E9426130D
:103CF00088E00E94DB10882309F41ECA0E94451345
:103D00001092960219CA81E080930D0180918C0275
:103D100090E0919581959109909391028093900202
:103D200082EB9BE00E94351384E00E94DB1081113E
:103D30001092960280E10E94E610882339F080916B
:103D40008C02803A18F48E5F80938C0280E80E9487
:103D5000E610882339F080918C02882319F0825074
:103D600080938C02D0909402CD2CEE24E394F12C1D
:103D70000FE710E030E020E04EE750E061E070E057
:103D80008DE790E00E94C6129EE3E92EF12C2FE30E
:103D900030E04EE750E06EE370E08DE790E00E9487
:103DA000C612CAC98F5F80939502D5C98F929F9220
:103DB000AF92BF92CF92DF92EF92FF92CF93DF93B9
:103DC000EC01688179818A819B816115710581058A
:103DD000910521F464E279ED8BE597E02DE133EF75
:103DE00041E050E00E94941F49015A019B01AC013F
:103DF000A7EAB1E40E94B31F6B017C01ACEEB4EF03
:103E0000A50194010E94C11FC60ED71EE81EF91E0F
:103E1000F7FE06C081E0C81AD108E10880E8F80A78
:103E2000C882D982EA82FB82C701B6019F77DF91FF
:103E3000CF91FF90EF90DF90CF90BF90AF909F9089
:103E40008F9008958F929F92AF92BF92CF92DF9200
:103E5000EF92FF9260910E0170910F01809110011D
:103E600090911101611571058105910521F464E2BC
:103E700079ED8BE597E02DE133EF41E050E00E94D2
:103E8000941F49015A019B01AC01A7EAB1E40E94C9
:103E9000B31F6B017C01ACEEB4EFA50194010E944D
:103EA000C11FC60ED71EE81EF91EF7FE06C081E030
:103EB000C81AD108E10880E8F80AC0920E01D09231
:103EC0000F01E0921001F0921101C701B6019F7736
:103ED000FF90EF90DF90CF90BF90AF909F908F902A
:103EE000089560930E0170930F01809310019093D9
:103EF00011010895F999FECF92BD81BDF89A9927D5
:103F000080B50895262FF999FECF92BD81BDF89A0C
:103F1000019700B4021639F01FBA20BD0FB6F8940D
:103F2000FA9AF99A0FBE0895052E97FB1EF4009495
:103F30000E94AB1F57FD07D00E94C61F07FC03D08D
:103F40004EF40C94AB1F50954095309521953F4F02
:103F50004F4F5F4F089590958095709561957F4F75
:103F60008F4F9F4F08950E94E81FA59F900DB49F0B
:103F7000900DA49F800D911D11240895B7FF0C94FE
:103F8000B31F0E94B31F821B930B0895A1E21A2E48
:103F9000AA1BBB1BFD010DC0AA1FBB1FEE1FFF1FED
:103FA000A217B307E407F50720F0A21BB30BE40B3D
:103FB000F50B661F771F881F991F1A9469F7609584
:103FC0007095809590959B01AC01BD01CF0108953E
:103FD000A29FB001B39FC001A39F700D811D11244A
:103FE000911DB29F700D811D1124911D0895AA1B72
:103FF000BB1B51E107C0AA1FBB1FA617B70710F0D4
:10400000A61BB70B881F991F5A95A9F78095909505
:10401000BC01CD01089597FB072E16F4009407D03C
:1040200077FD09D00E94F71F07FC05D03EF490955C
:1040300081959F4F0895709561957F4F0895EE0F7C
:10404000FF1F0590F491E02D0994AEE0B0E0EBE2A3
:10405000F0E20C94D4220D891E8986E08C831A83A9
:1040600009838FEF9FE79E838D83AE01475E5F4F8D
:104070006F89788DCE0101960E9448202F81388566
:10408000020F131FF80110822E96E4E00C94F02228
:10409000ABE0B0E0EEE4F0E20C94C6227C013B0120
:1040A0008A01FC0117821682838181FFC8C1CE017B
:1040B00001965C01F7019381F30193FD859193FFD4
:1040C00081913F01882309F453C1853239F493FD6E
:1040D000859193FF81913F01853229F4B70190E0EA
:1040E0000E943822E7CF912C212C312CFFE1F315CF
:1040F00038F08B3211F190F4803209F1833229F1DA
:1041000037FC3CC020ED280F2A3050F536FE20C089
:104110008AE0989E200D1124922E06C08D3291F0D7
:10412000803371F7689430F8F30193FD859193FF24
:1041300081913F018111DACF21C0689431F86894F0
:1041400032F8F2CF689433F8EFCF689434F8ECCFBC
:10415000EAE02E9E200D1124222E689435F8E4CF3B
:104160008E3229F436FC04C1689436F8DDCF8C36E3
:1041700019F4689437F8D8CF8836B1F2982F9F7D1C
:1041800095549330E0F08336A1F18337C1F1833544
:1041900009F063C02801F2E04F0E511CF801C08005
:1041A000D180692D70E036FC02C06FEF7FEFC60151
:1041B0000E9422224C01689437F882010AC00C5FE9
:1041C0001F4FFFE3F98388248394912C6501E894C1
:1041D00037F833FE2DC0522C8114910471F555200F
:1041E00009F468CFB70180E290E00E9438225A9427
:1041F000F6CFF801808189830E5F1F4FE4CF28013D
:10420000F2E04F0E511CF801C080D180692D70E0A2
:1042100036FC02C06FEF7FEFC6010E942D224C01D9
:104220008201D5CFB70180E290E00E9438222A9423
:104230002814190409F0B0F7CECFF60137FC8591A8
:1042400037FE81916F01B70190E00E943822511032
:104250005A94F1E08F1A9108BFCF843619F089364D
:1042600009F077C0F80137FE6BC0608171818281EF
:1042700093810C5F1F4FF32DFF763F2E97FF09C0F0
:1042800090958095709561957F4F8F4F9F4F689463
:1042900037F82AE030E0A5010E946822C82ECA182B
:1042A0008C2C432C36FE0CC0E89440F8C91440F422
:1042B00034FE05C032FC03C0F32DFE7E4F2E892C48
:1042C00044FE95C0FE01EC0DF11D8081803309F0A4
:1042D00087C0242D297E422E842D8870582E43FCC1
:1042E00095C040FE8FC09C2C821418F42C0C922C8C
:1042F000981844FE91C0B70180E390E00E943822F4
:1043000042FE09C088E790E041FE02C088E590E0E7
:10431000B7010E943822C91408F48AC0CA94D12C6B
:104320009FEFC91AD90ACA0CDB1CF60182916F01F2
:10433000B70190E00E943822AC14BD04B1F74FCF12
:1043400060817181072E000C880B990B0E5F1F4F47
:1043500092CFD32CE894D4F82AE030E0853739F1B5
:10436000232D297FD22E8F3601F148F48835A9F00C
:10437000F701868197812B96E2E10C94E222803747
:1043800049F08837A9F7D4FE02C06894D2F820E13A
:1043900030E00DC06894D4F8F6CF34FE03C0822F0D
:1043A0008660D82E20E132E002C028E030E0F8013B
:1043B000D7FE0FC060817181828193810C5F1F4F96
:1043C000A5010E946822C82ECA183D2CE89437F82F
:1043D00067CF6081718190E080E00E5F1F4FF0CF6A
:1043E00042FC02C0839478CF8394839475CF842D4C
:1043F000867809F471CFF6CFB70180E290E00E9491
:10440000382283948214C0F3512C73CF522C581845
:10441000821408F46ECFF8CF842D867809F47BCF10
:104420008BE241FE80E247FC8DE2B70190E071CF64
:10443000B70180E390E00E9438229A946CCF8FEF0E
:104440009FEF99CFFC010590615070400110D8F7A3
:10445000809590958E0F9F1F0895FC0161507040CC
:1044600001900110D8F7809590958E0F9F1F0895A9
:104470000F931F93CF93DF93182F092FEB018B819D
:1044800081FD09C01FEF0FEF812F902FDF91CF919A
:104490001F910F91089582FF14C02E813F818C815E
:1044A0009D81281739073CF4E881F981CF010196F5
:1044B0009983888310838E819F8101969F838E8349
:1044C000E3CFE885F985812F0995892BA1F3DACF10
:1044D000FA01AA27283051F1203181F1E8946F9335
:1044E0006E7F6E5F7F4F8F4F9F4FAF4FB1E03ED0DB
:1044F000B4E03CD0670F781F891F9A1FA11D680F79
:10450000791F8A1F911DA11D6A0F711D811D911DAB
:10451000A11D20D009F468943F912AE0269F112420
:104520003019305D3193DEF6CF010895462F477084
:10453000405D4193B3E00FD0C9F7F6CF462F4F70DF
:10454000405D4A3318F0495D31FD4052419302D03D
:10455000A9F7EACFB4E0A6959795879577956795E3
:10456000BA95C9F700976105710508959B01AC01E3
:104570000A2E06945795479537952795BA95C9F70A
:10458000620F731F841F951FA01D08952F923F92E5
:104590004F925F926F927F928F929F92AF92BF9253
:1045A000CF92DF92EF92FF920F931F93CF93DF93FF
:1045B000CDB7DEB7CA1BDB0B0FB6F894DEBF0FBE5C
:1045C000CDBF09942A88398848885F846E847D84A9
:1045D0008C849B84AA84B984C884DF80EE80FD80AB
:1045E0000C811B81AA81B981CE0FD11D0FB6F89421
:0E45F000DEBF0FBECDBFED010895F894FFCFE2
:1045FE00FFFFFFFF00E100000000000010010100BE
:10460E00000000C1808100000000000000190C961F
:10461E000B3A0C2F0C800C3E0C5C0C0000000008BA
:10462E000D690B23132213000000000F11690B23D9
:10463E001322130D0A002020205374617274004956
:10464E006E737472756374696F6E730020202041EF
:10465E00626F75740053434F524500253564000058
:00000001FF
